:1000000044C0A4C7A3C7A2C7A1C7A0C79FC79EC714
:100010009DC79CC7A2C4E0C41EC5D2C59CC396C7D9
:1000200095C794C793C792C791C790C786C28EC71A
:100030008DC78CC7C6C0FDC02CC130C134C138C10A
:1000400092C1BDC13F0D3F21803F253F27803F2703
:100050003F29803F213F25000F4E3F293F2B000FB6
:10006000523F2B3F2D803F2F3F30803F303F31802C
:100070003F313F32803F2D3F2F803F323F33803F23
:10008000333F34803F003F0D800011241FBECFEF6F
:10009000CDBFDFE3DEBFE4E4F0E040E017C0B591A0
:1000A000A59135912591059107FD0CC095918591FC
:1000B000EF01F92FE82F05900D92A217B307D9F79A
:1000C000FE0104C01D92A217B307E1F7E938F40757
:0A00D00031F76AD600C0F894FFCFA4
:1000DA0070000060100050200040300030400020C6
:1000EA0050001060000070000070000060100050A6
:1000FA0020004030003040002050001060000070A6
:10010A000000701000602000503000404000305065
:10011A0000206000107000000000009E00A800B2DD
:10012A0000BC00C700D300E000ED00FB000A011A82
:03013A00012B0195
:10013E008F929F92AF92BF92CF92DF92EF92FF92E9
:10014E000F931F93CF93DF938091273F9091283F7A
:10015E00892BD9F08091253F9091263F803197428F
:10016E0058F4B1D48091253F9091263F019680930B
:10017E00253F9093263FCDC11092253F1092263FEA
:10018E001092273F1092283FC4C180912F3F8111BA
:10019E0002C066D6BEC110922D3F10922E3FB0D631
:1001AE008091313FE82FE7708E2F90E0FC01E65EE4
:1001BE00FF4F09941091303F1F73110F8091303F04
:1001CE00807C803471F018F4882339F016C08038A2
:1001DE0071F0803C91F41092303F00E8011BF12C3D
:1001EE000FC0F12E80E8811B182F00E009C080E8B7
:1001FE00F82EF11A012F10E003C010E0F12C00E0F0
:10020E008091303F8F5F8093303FC8E1D0E087EE22
:10021E0080D6812F7ED68F2D7CD6802F7AD62197B1
:10022E00B1F776C11091303F00E00F2EFBEAEF2EB2
:10023E00F02D0F2EF8E1FF2EF02D812F800F8E9DC9
:10024E00112D112412951F701F9D80191124182F26
:10025E0087EE5FD6C12FD0E0CE01880F991FC80F51
:10026E00D91FC652DF478A8154D6898152D68881DA
:10027E0050D60F5F083109F78091303F8F5F809322
:10028E00303F46C140E060E08FEF21D341C140E0F6
:10029E006FEF80E01CD33CC14FEF60E080E017D3DE
:1002AE0037C191E08091113F811101C090E081E052
:1002BE002091163F211101C080E0890F91E020911D
:1002CE001B3F211101C090E0890F91E02091203F4A
:1002DE00211101C090E0890F982F990F890F880F77
:1002EE009091303F981710F48093303F8091303FBB
:1002FE008823A9F0CAEDD0E800E010E087EE09D619
:10030E008A8107D6898105D6888103D60F5F1F4F54
:10031E008091303F239690E0081719077CF3C09127
:10032E00303FD0E0C831D10564F487EEF2D580E0DD
:10033E00F0D580E0EED580E0ECD52196C831D10520
:10034E00A1F78091303F882309F4E2C08091303FBD
:10035E0082508093303FDCC0EDE0FFE32481818545
:10036E0090E0820F911D2685820F911D2389820FA9
:10037E00911D9595879595958795959587959595C5
:10038E00879511EE180FCFE1D1E80F2EF7EDEF2E76
:10039E00F0E8FF2EF02D812FBCD58A81BAD5898148
:1003AE00B8D58881B6D52397EC16FD06A1F7B0C057
:1003BE00EDE0FFE3818190E09C01220F331F820F5D
:1003CE00931F880F991F880F991F880F991F2CE66E
:1003DE0030E0B90158D5462F062F868190E0BC013A
:1003EE00660F771F860F971F880F991F880F991F0B
:1003FE00880F991FB90147D5C62FE62E838590E049
:10040E00BC01660F771F860F971F880F991F880FE5
:10041E00991F880F991FB90136D5D62FC62E808900
:10042E0090E0BC01660F771F860F971F880F991FEC
:10043E00880F991F880F991FB90125D5A62E809177
:10044E000C3F803198F4442311F00FEF040FEE208F
:10045E0019F0EE24EA94EC0ECC2019F0CC24CA94B8
:10046E00CD0EAA2019F0AA24AA94A60E80910C3FB4
:10047E00803240F401110150E110EA94C110CA9487
:10048E00A110AA9480910C3F813220F00F5FE3946B
:10049E00C394A39480910C3F813320F00F5FE394BB
:1004AE00C394A394CAEDD0E8812C912C10E0F12CCA
:1004BE00D12CB12C8FEF881A980A8016910649F02C
:1004CE008E149F0431F08C149D0419F08A149B0431
:1004DE0049F487EE1ED58A811CD589811AD588816B
:1004EE0018D511C081EE15D58A818695869586958B
:1004FE0010D589818695869586950BD588818695AA
:10050E008695869506D5239628E18216910491F656
:10051E000DD5DF91CF911F910F91FF90EF90DF904E
:0C052E00CF90BF90AF909F908F900895E9
:10053A001F920F920FB60F9211242F933F934F934E
:10054A005F936F937F938F939F93AF93BF93EF9331
:10055A00FF9360910008862F807F803921F481E023
:10056A008093323FE2C0803821F482E08093323FA8
:10057A00DCC0803E21F484E08093323FD6C06D3FD8
:10058A0021F488E08093323FD0C06A3F71F4EDE0F5
:10059A00FFE3148211821186168216861386138A45
:1005AA00108A86E08093323FC0C06B3F69F4E0E076
:1005BA00FAE0808181608083E0E4FAE080818160F2
:1005CA0080831092323FB1C06C3F69F4E0E0FAE0F8
:1005DA0080818E7F8083E0E4FAE080818E7F808351
:1005EA001092323FA2C08091323F813031F4609341
:1005FA00333F83E08093323F98C08091323F82300C
:10060A0029F4862F03D41092323F8FC08091323F53
:10061A00833031F48091333F31D31092323F85C019
:10062A008091323F843021F485E08093323F7DC04F
:10063A008091323F853041F4862F869580930C3F16
:10064A001092323FEDD271C08091323F863061F410
:10065A00862F90E0982F88278093293F90932A3FEE
:10066A0087E08093323F61C08091323F873009F53D
:10067A00E0E0FAE0808181608083E0E4FAE0808152
:10068A00816080838091293F90912A3F860F911D36
:10069A008093293F90932A3F1092323F1092253F30
:1006AA001092263F8FEF90E08093273F9093283F48
:1006BA003CC08091323F8830C1F5613089F018F032
:1006CA006230D9F026C080E09FE7A0E0B0E08093D6
:1006DA00213F9093223FA093233FB093243F19C018
:1006EA0080E090E0AFE7B0E08093213F9093223F13
:1006FA00A093233FB093243F0CC08FE790E0A0E083
:10070A00B0E08093213F9093223FA093233FB09380
:10071A00243F1092253F1092263F8FEF90E080935E
:10072A00273F9093283F1092323FFF91EF91BF915C
:10073A00AF919F918F917F916F915F914F913F916F
:0C074A002F910F900FBE0F901F9018957C
:100756001F920F920FB60F9211242F933F934F9330
:100766008F939F934091003F8091083F3091033FC4
:100776002091093F91E090938D0A4695869590E0E9
:10078600840F911D3695830F911D2695820F911D1D
:10079600809381068091080482FF0AC080912B3FD6
:1007A60090912C3F019680932B3F90932C3F23C032
:1007B60080912B3F90912C3F813E9E4230F080915C
:1007C6002F3F809580932F3F12C080912B3F9091B1
:1007D6002C3F893B9B4058F080912F3F882339F06E
:1007E6001092303F8091313F8F5F8093313F10925E
:1007F6002B3F10922C3F80912D3F90912E3F0196DA
:1008060080932D3F90932E3F9F918F914F913F91D3
:0C0816002F910F900FBE0F901F901895AF
:10082200CF93DF9390E0FC01EE0FFF1FEE0FFF1F4F
:10083200E80FF91FE35FF04C2481222309F448C03A
:1008420020910C3F2032E8F4EF018181815069D27E
:1008520060910C3F2A813B81821B930BAC01529524
:1008620042954F7045275F70452720E230E0261BF6
:100872003109429FC001439F900D529F900D112458
:1008820029C0EC01CC0FDD1FCC0FDD1F8C0F9D1F8B
:10089200EC01C35FD04C89818F5F43D220910C3F22
:1008A2004A815B81481B590B529542954F704527EF
:1008B2005F70452730E020523109429FC001439FBB
:1008C200900D529F900D112491958195910902C02E
:0A08D20080E090E0DF91CF910895DF
:1008DC00EF92FF920F931F93CF93DF93EDE0FFE323
:1008EC0096812181291708F4292F9091183F92178E
:1008FC0008F4922F10911D3F191708F4192F173374
:10090C0020F01653110F110F01C010E0912F92958A
:10091C009F700F2EF1ECEF2EF02DE90E185FC8E151
:10092C00D0E0F12EF422012F062318238E2DF2D2C3
:10093C008F2DF0D2802FEED2812FECD22197B1F7F0
:0E094C00DF91CF911F910F91FF90EF900895D2
:10095A001F920F920FB60F9211242F933F934F932A
:10096A005F938F939F93AF93BF93EF93FF93A0E00F
:10097A00BAE080E11B968C931B9720910A3F309135
:10098A000B3F98964D915C919997EDE0FFE3828138
:10099A009381840F951F820F931F98968D939C9332
:1009AA009997808180958083948189238093003FE1
:1009BA00FF91EF91BF91AF919F918F915F914F916D
:0E09CA003F912F910F900FBE0F901F90189528
:1009D8001F920F920FB60F9211242F933F934F93AC
:1009E8005F938F939F93AF93BF93EF93FF93A0E091
:1009F800BAE080E21B968C931B972091013F3091BF
:100A0800023F9A964D915C919B97EDE0FFE38781B9
:100A18009085840F951F820F931F9A968D939C93B0
:100A28009B97858180958583918589238093083F4D
:100A3800FF91EF91BF91AF919F918F915F914F91EE
:0E0A48003F912F910F900FBE0F901F901895A9
:100A56001F920F920FB60F9211242F933F934F932D
:100A66005F938F939F93AF93BF93EF93FF93A0E012
:100A7600BAE080E41B968C931B972091043F30913B
:100A8600053F9C964D915C919D97EDE0FFE3848533
:100A96009585840F951F820F931F9C968D939C932B
:100AA6009D97828580958287968589238093033FCB
:100AB600FF91EF91BF91AF919F918F915F914F9170
:0E0AC6003F912F910F900FBE0F901F9018952B
:100AD4001F93CF93DF93C091293FD0912A3F219652
:100AE40014D218E1C0FD09C087EE18D280E016D2F6
:100AF40080E014D280E012D21EC081EE0FD2609149
:100B0400213F7091223F8091233F9091243F06D250
:100B14008091213F9091223FA091233FB091243FA7
:100B2400892FFCD18091213F9091223FA091233FB6
:100B3400B091243FF3D1D695C795115099F6FBD1C6
:080B4400DF91CF911F9108958C
:100B4C00813099F028F08230E9F0833041F108953A
:100B5C00E0E0FAE020A131A180910F3F9091103F8D
:100B6C00820F931F80A791A70895E0E0FAE020A1DF
:100B7C0031A18091143F9091153F820F931F82A752
:100B8C0093A70895E0E0FAE020A131A18091193FEC
:100B9C0090911A3F820F931F84A795A70895809177
:100BAC001E3F90911F3FE0E4FAE084879587128600
:040BBC0013860895FF
:100BC0001F920F920FB60F9211242F933F938F9382
:100BD0009F93AF93BF93EF93FF93A0E4BAE081E0BC
:100BE00016968C9316972091063F3091073FEDE0C3
:100BF000FFE381899289820F931F1C968D939C93AA
:100C00001D97878580958787938989238093093FDE
:100C1000FF91EF91BF91AF919F918F913F912F9154
:0A0C20000F900FBE0F901F90189563
:100C2A0080910C3F803289F410920A3F10920B3F58
:100C3A001092013F1092023F1092043F1092053F1A
:100C4A001092063F1092073F089580E0E5DD8093F9
:100C5A000A3F90930B3F81E0DFDD8093013F909341
:100C6A00023F82E0D9DD8093043F9093053F83E001
:0C0C7A00D3DD8093063F9093073F089560
:100C8600FF920F931F93CF93DF93182FF62E6111C8
:100C960002C0BED018C066D0082F8823A4F0C82F83
:100CA600880FDD0BCE01880F991F880F991FC80F7B
:100CB600D91FC35FD04CFC821983812F30D08A8321
:100CC6009B83802F40DFDF91CF911F910F91FF9083
:020CD60008957F
:100CD800813069F028F0823089F08330B1F00895CE
:100CE8001092280A1092290A1092003F0895109233
:100CF8002A0A10922B0A1092083F089510922C0A83
:100D080010922D0A1092033F0895E0E4FAE0148649
:0C0D18001586128613861092093F08957C
:100D24008C36F1F021E0280F8CE690E0821B9109CB
:100D34006CE070E0ADD0ECE6E21B862F880F860FE6
:100D4400880F880FE81BF0E0EE0FFF1FEB5DFE47F6
:100D54008081918102C0880F991F6A95E2F70895F6
:060D640085E990E008950E
:100D6A0090910E3F992361F0891769F0EDE0FFE356
:100D7A0021E030E09681992341F0981308C005C01C
:100D8A0020E030E002C020E030E0822F08952F5F9B
:0E0D9A003F4F35962430310569F78FEF0895ED
:100DA800C3D099D0A4D0CFEFC093240882D017D055
:100DB80084E080930204C2D0C0932F3F1092273F53
:100DC8001092283F1092293F10922A3F80912D3F80
:0E0DD80090912E3F843C9940C8F3ADD9F7CFDF
:100DE600E0E0FAE080E7828789E08083E0E4FAE0E9
:100DF600118281E0858395E09083E0E8FAE0118234
:100E060084878CE090E086A797A781E78083089582
:100E16000F931F93CF93DF93082FCDE0DFE310E00E
:100E26008981801304C0812F54DF19821C821F5FC1
:100E360025961430A9F7DF91CF911F910F91089550
:100E4600AA1BBB1B51E107C0AA1FBB1FA617B707EA
:100E560010F0A61BB70B881F991F5A95A9F7809506
:080E66009095BC01CD01089537
:100E6E00CF93DF934DD0C8E1D0E080EE52D080E03A
:100E7E0050D080E04ED080E04CD02197B1F756D0C4
:060E8E00DF91CF910895F1
:100E940097FB072E16F4009406D077FD08D0D1DF17
:100EA40007FC05D03EF4909581959F4F0895709569
:060EB40061957F4F0895D7
:100EBA00E0E0F4E080818F778083E0E0F8E08BEE79
:100ECA0099E080879187858180688583868180689B
:040EDA00868308956E
:100EDE0080E480930104E0EAF0E080818360808307
:080EEE0081E480938006089561
:100EF600E0E0F4E080818A608083E0E2F8E084E06C
:080F0600818381E280830895DC
:100F0E0080E007D080E005D080E003D080E001D003
:020F1E00089534
:100F2000E0E2F8E093819923ECF780932408089598
:0A0F300088ED84BF1092610008955F
:0A0F3A008FEFF1DF80E0EFDF089594
:080F440081E08FBF789408954D
:020F4C0059C882
:040F4E007F00000020
:020F520001009C
:00000001FF
