:1000000038C08CC68BC68AC689C688C687C686C6CF
:1000100085C684C6CEC30CC44AC4C2C4C8C27EC688
:100020007DC67CC67BC67AC679C678C659C276C6F6
:1000300075C674C699C0D0C0FFC003C107C10BC14B
:1000400065C190C13F0D3F21803F213F23803F2567
:100050003F26803F263F27803F273F28803F233F82
:1000600025803F283F29803F293F2A803F003F0DC0
:10007000800011241FBECFEFCDBFDFE3DEBFE4E47D
:10008000F0E040E017C0B591A5913591259105911B
:1000900007FD0CC095918591EF01F92FE82F059090
:1000A0000D92A217B307D9F7FE0104C01D92A21743
:1000B000B307E1F7E137F40731F796D500C0F894BC
:0200C000FFCF70
:1000C20070000060100050200040300030400020DE
:1000D20050001060000070000070000060100050BE
:1000E20020004030003040002050001060000070BE
:1000F200000070100060200050300040400030507E
:1001020000206000107000000000009E00A800B2F5
:1001120000BC00C700D300E000ED00FB000A011A9A
:03012200012B01AD
:100126008F929F92AF92BF92CF92DF92EF92FF9201
:100136000F931F93CF93DF938091253F811102C0C8
:100146007BD5BEC11092233F1092243FC5D5809126
:10015600273FE82FE7708E2F90E0FC01E65EFF4F09
:1001660009941091263F1F73110F8091263F807CC2
:10017600803471F018F4882339F016C0803871F095
:10018600803C91F41092263F00E8011BF12C0FC031
:10019600F12E80E8811B182F00E009C080E8F82EB8
:1001A600F11A012F10E003C010E0F12C00E080915D
:1001B600263F8F5F8093263FC8E1D0E087EE95D536
:1001C600812F93D58F2D91D5802F8FD52197B1F77C
:1001D60076C11091263F00E00F2EFBEAEF2EF02DA0
:1001E6000F2EF8E1FF2EF02D812F800F8E9D112D01
:1001F600112412951F701F9D80191124182F87EE48
:1002060074D5C12FD0E0CE01880F991FC80FD91F12
:10021600CE53DF478A8169D5898167D5888165D5BF
:100226000F5F083109F78091263F8F5F8093263F45
:1002360046C140E060E08FEF7AD241C140E06FEF07
:1002460080E075D23CC14FEF60E080E070D237C1EC
:1002560091E08091113F811101C090E081E02091F1
:10026600163F211101C080E0890F91E020911B3FCC
:10027600211101C090E0890F91E02091203F2111CA
:1002860001C090E0890F982F990F890F880F9091E0
:10029600263F981710F48093263F8091263F8823A7
:1002A600A9F0C2ECD0E800E010E087EE1ED58A8106
:1002B6001CD589811AD5888118D50F5F1F4F80916B
:1002C600263F239690E0081719077CF3C091263F36
:1002D600D0E0C831D10564F487EE07D580E005D5B6
:1002E60080E003D580E001D52196C831D105A1F77C
:1002F6008091263F882309F4E2C08091263F8250F0
:100306008093263FDCC0EDE0FFE32481818590E009
:10031600820F911D2685820F911D2389820F911DC3
:1003260095958795959587959595879595958795AF
:1003360011EE180FC7E0D1E80F2EFFEBEF2EF0E815
:10034600FF2EF02D812FD1D48A81CFD48981CDD4AF
:100356008881CBD42397EC16FD06A1F7B0C0EDE05B
:10036600FFE3818190E09C01220F331F820F931FD0
:10037600880F991F880F991F880F991F2CE630E068
:10038600B9016DD4462F062F868190E0BC01660F19
:10039600771F860F971F880F991F880F991F880F41
:1003A600991FB9015CD4C62FE62E838590E0BC0167
:1003B600660F771F860F971F880F991F880F991F43
:1003C600880F991FB9014BD4D62FC62E808990E08D
:1003D600BC01660F771F860F971F880F991F880F1E
:1003E600991F880F991FB9013AD4A62E80910C3F08
:1003F600803198F4442311F00FEF040FEE2019F02A
:10040600EE24EA94EC0ECC2019F0CC24CA94CD0E3E
:10041600AA2019F0AA24AA94A60E80910C3F803235
:1004260040F401110150E110EA94C110CA94A110E0
:10043600AA9480910C3F813220F00F5FE394C3941D
:10044600A39480910C3F813320F00F5FE394C39413
:10045600A394C2ECD0E8812C912C10E0F12CD12C85
:10046600B12C8FEF881A980A8016910649F08E14DF
:100476009F0431F08C149D0419F08A149B0449F4EE
:1004860087EE33D48A8131D489812FD488812DD4C3
:1004960011C081EE2AD48A8186958695869525D4C3
:1004A600898186958695869520D4888186958695B8
:1004B60086951BD4239688E18816910491F622D45A
:1004C600DF91CF911F910F91FF90EF90DF90CF902A
:0A04D600BF90AF909F908F900895A3
:1004E0001F920F920FB60F9211242F933F934F93A9
:1004F0005F936F937F938F939F93AF93BF93EF938C
:10050000FF9360910008962F907F903921F481E04D
:100510008093283F3BC0903821F482E08093283FAD
:1005200035C0903E21F484E08093283F2FC0809115
:10053000283F813031F46093293F83E08093283F46
:1005400025C08091283F823029F4862F35D3109220
:10055000283F1CC08091283F833031F48091293F8F
:1005600082D21092283F12C08091283F843021F41B
:1005700085E08093283F0AC08091283F853031F480
:10058000669560930C3F1092283F3FD2FF91EF9108
:10059000BF91AF919F918F917F916F915F914F919B
:0E05A0003F912F910F900FBE0F901F90189556
:1005AE001F920F920FB60F9211242F933F934F93DA
:1005BE008F939F934091003F8091083F3091033F6E
:1005CE002091093F91E090938D0A4695869590E093
:1005DE00840F911D3695830F911D2695820F911DC7
:1005EE00809381068091080482FF0AC08091213F8A
:1005FE009091223F01968093213F9093223F23C0FA
:10060E008091213F9091223F813E9E4230F0809119
:10061E00253F80958093253F12C08091213F909178
:10062E00223F893B9B4058F08091253F882339F02B
:10063E001092263F8091273F8F5F8093273F109225
:10064E00213F1092223F8091233F9091243F0196AB
:10065E008093233F9093243F9F918F914F913F9191
:0C066E002F910F900FBE0F901F90189559
:10067A00CF93DF9390E0FC01EE0FFF1FEE0FFF1FF9
:10068A00E80FF91FE35FF04C2481222309F448C0E4
:10069A0020910C3F2032E8F4EF01818181502DD264
:1006AA0060910C3F2A813B81821B930BAC015295CE
:1006BA0042954F7045275F70452720E230E0261BA0
:1006CA003109429FC001439F900D529F900D112402
:1006DA0029C0EC01CC0FDD1FCC0FDD1F8C0F9D1F35
:1006EA00EC01C35FD04C89818F5F07D220910C3F08
:1006FA004A815B81481B590B529542954F70452799
:10070A005F70452730E020523109429FC001439F64
:10071A00900D529F900D112491958195910902C0D7
:0A072A0080E090E0DF91CF91089588
:10073400EF92FF920F931F93CF93DF93EDE0FFE3CC
:1007440096812181291708F4292F9091183F921737
:1007540008F4922F10911D3F191708F4192F17331D
:1007640020F01653110F110F01C010E0912F929534
:100774009F700F2EF1ECEF2EF02DE90E185FC8E1FB
:10078400D0E0F12EF422012F062318238E2DAED2B1
:100794008F2DACD2802FAAD2812FA8D22197B1F766
:0E07A400DF91CF911F910F91FF90EF9008957C
:1007B2001F920F920FB60F9211242F933F934F93D4
:1007C2005F938F939F93AF93BF93EF93FF93A0E0B9
:1007D200BAE080E11B968C931B9720910A3F3091DF
:1007E2000B3F98964D915C919997EDE0FFE38281E2
:1007F2009381840F951F820F931F98968D939C93DC
:100802009997808180958083948189238093003F8A
:10081200FF91EF91BF91AF919F918F915F914F9116
:0E0822003F912F910F900FBE0F901F901895D1
:100830001F920F920FB60F9211242F933F934F9355
:100840005F938F939F93AF93BF93EF93FF93A0E03A
:10085000BAE080E21B968C931B972091013F309168
:10086000023F9A964D915C919B97EDE0FFE3878163
:100870009085840F951F820F931F9A968D939C935A
:100880009B97858180958583918589238093083FF7
:10089000FF91EF91BF91AF919F918F915F914F9198
:0E08A0003F912F910F900FBE0F901F90189553
:1008AE001F920F920FB60F9211242F933F934F93D7
:1008BE005F938F939F93AF93BF93EF93FF93A0E0BC
:1008CE00BAE080E41B968C931B972091043F3091E5
:1008DE00053F9C964D915C919D97EDE0FFE38485DD
:1008EE009585840F951F820F931F9C968D939C93D5
:1008FE009D97828580958287968589238093033F75
:10090E00FF91EF91BF91AF919F918F915F914F9119
:0E091E003F912F910F900FBE0F901F901895D4
:10092C00813099F028F08230E9F0833041F108955C
:10093C00E0E0FAE020A131A180910F3F9091103FAF
:10094C00820F931F80A791A70895E0E0FAE020A101
:10095C0031A18091143F9091153F820F931F82A774
:10096C0093A70895E0E0FAE020A131A18091193F0E
:10097C0090911A3F820F931F84A795A70895809199
:10098C001E3F90911F3FE0E4FAE084879587128622
:04099C001386089521
:1009A0001F920F920FB60F9211242F933F938F93A4
:1009B0009F93AF93BF93EF93FF93A0E4BAE081E0DE
:1009C00016968C9316972091063F3091073FEDE0E5
:1009D000FFE381899289820F931F1C968D939C93CC
:1009E0001D97878580958787938989238093093F01
:1009F000FF91EF91BF91AF919F918F913F912F9177
:0A0A00000F900FBE0F901F90189585
:100A0A0080910C3F803289F410920A3F10920B3F7A
:100A1A001092013F1092023F1092043F1092053F3C
:100A2A001092063F1092073F089580E021DE8093DE
:100A3A000A3F90930B3F81E01BDE8093013F909326
:100A4A00023F82E015DE8093043F9093053F83E0E6
:0C0A5A000FDE8093063F9093073F089545
:100A6600FF920F931F93CF93DF93182FF62E6111EA
:100A760002C09FD018C066D0082F8823A4F0C82FC4
:100A8600880FDD0BCE01880F991F880F991FC80F9D
:100A9600D91FC35FD04CFC821983812F30D08A8343
:100AA6009B83802F40DFDF91CF911F910F91FF90A5
:020AB6000895A1
:100AB800813069F028F0823089F08330B1F00895F0
:100AC8001092280A1092290A1092003F0895109255
:100AD8002A0A10922B0A1092083F089510922C0AA5
:100AE80010922D0A1092033F0895E0E4FAE014866C
:0C0AF8001586128613861092093F08959F
:100B04008C36F1F021E0280F8CE690E0821B9109ED
:100B14006CE070E0A5D0ECE6E21B862F880F860F10
:100B2400880F880FE81BF0E0EE0FFF1FE35FFE471E
:100B34008081918102C0880F991F6A95E2F7089518
:060B440085E990E0089530
:100B4A0090910E3F992361F0891769F0EDE0FFE378
:100B5A0021E030E09681992341F0981308C005C03E
:100B6A0020E030E002C020E030E0822F08952F5FBD
:0E0B7A003F4F35962430310569F78FEF08950F
:100B8800E0E0FAE080E7828789E08083E0E4FAE049
:100B9800118281E0858395E09083E0E8FAE0118294
:100BA80084878CE090E086A797A781E780830895E3
:100BB8000F931F93CF93DF93082FCDE0DFE310E06F
:100BC8008981801304C0812F73DF19821C821F5F03
:100BD80025961430A9F7DF91CF911F910F910895B1
:100BE8008BD061D06CD0CFEFC09324084AD0C8DF37
:100BF80084E0809302048AD0C093253F8091233FEC
:0E0C08009091243F843C9940C8F389DAF7CFDD
:100C1600AA1BBB1B51E107C0AA1FBB1FA617B7071C
:100C260010F0A61BB70B881F991F5A95A9F7809538
:080C36009095BC01CD01089569
:100C3E00CF93DF934DD0C8E1D0E080EE52D080E06C
:100C4E0050D080E04ED080E04CD02197B1F756D0F6
:060C5E00DF91CF91089523
:100C640097FB072E16F4009406D077FD08D0D1DF49
:100C740007FC05D03EF4909581959F4F089570959B
:060C840061957F4F089509
:100C8A00E0E0F4E080818F778083E0E0F8E08BEEAB
:100C9A0099E08087918785818068858386818068CD
:040CAA0086830895A0
:100CAE0080E480930104E0EAF0E080818360808339
:080CBE0081E480938006089593
:100CC600E0E0F4E080818A608083E0E2F8E084E09E
:080CD600818381E2808308950F
:100CDE0080E007D080E005D080E003D080E001D036
:020CEE00089567
:100CF000E0E2F8E093819923ECF7809324080895CB
:0A0D000088ED84BF10926100089591
:0A0D0A008FEFF1DF80E0EFDF0895C6
:080D140081E08FBF789408957F
:020D1C0071C99B
:00000001FF
