:100000003BC015C614C613C612C611C610C60FC60D
:100010000EC60DC6BDC3FBC339C48EC208C607C613
:1000200006C605C604C603C602C601C6EDC2FFC5A4
:10003000FEC5FDC575C0ACC0DBC0F6C011C12CC18A
:100040007EC115C23F0A3F55000C303F553F6480CA
:100050003F643F66803F683F69803F693F6A803FF9
:100060006A3F6B803F663F68803F6B3F6C803F6CB0
:100070003F6D803F003F0A8011241FBECFEFCDBFF0
:10008000DFE3DEBFE4E4F0E040E017C0B591A59106
:1000900035912591059107FD0CC095918591EF0152
:1000A000F92FE82F05900D92A217B307D9F7FE019B
:1000B00004C01D92A217B307E1F7E837F40731F740
:0800C00005D500C0F894FFCF44
:1000C8009E00A800B200BC00C700D300E000ED000D
:0800D800FB000A011A012B01D3
:1000E0009F92AF92BF92CF92DF92EF92FF920F93C7
:1000F0001F93CF93DF938091683F811102C00FD58A
:100100000FC21092663F1092673F6BD580916A3F95
:10011000E82FE7708E2F90E0FC01E65EFF4F099418
:100120001091693F1F73110F8091693F807C80346B
:1001300071F018F4882339F016C0803871F0803CD3
:1001400091F41092693F00E8011BF12C0FC0F12ED1
:1001500080E8811B182F00E009C080E8F82EF11A12
:10016000012F10E003C010E0F12C00E08091693F06
:100170008F5F8093693FC8E1D0E087EE3BD5812F48
:1001800039D58F2D37D5802F35D52197B1F7C7C1F8
:100190001091693F00E00F2EFBEAEF2EF02D0F2E9D
:1001A000F8E1FF2EF02D812F800F8E9D112D11244F
:1001B00012951F701F9D80191124182F87EE1AD5D4
:1001C000C12FD0E0CE01880F991FC80FD91FC65F7D
:1001D000D04C8A810FD589810DD588810BD50F5FD1
:1001E000083109F78091693F8F5F8093693F97C11C
:1001F000E5E5FFE32481818590E0820F911D26854E
:10020000820F911D9595879595958795182FC8E133
:10021000D0E087EEEFD480E0EDD480E0EBD4812F06
:10022000E9D42197B1F77BC1E5E5FFE3248181851E
:1002300090E0820F911D2685820F911D95958795DF
:1002400095958795182FC8E1D0E087EED3D480E04C
:10025000D1D4812FCFD480E0CDD42197B1F75FC125
:10026000E5E5FFE32481818590E0820F911D2685DD
:10027000820F911D9595879595958795182FC8E1C3
:10028000D0E087EEB7D4812FB5D480E0B3D480E03E
:10029000B1D42197B1F743C191E08091593F8111C9
:1002A00001C090E081E020915E3F211101C080E01B
:1002B000890F91E02091633F211101C090E0890FE7
:1002C000880F880F880F9091693F981710F48093DA
:1002D000693F8091693F8823A9F0CAE0DFE300E02D
:1002E00010E087EE87D48A8185D4898183D4888180
:1002F00081D40F5F1F4F8091693F239690E00817CC
:1003000019077CF3C091693FD0E0C831D10564F48E
:1003100087EE70D480E06ED480E06CD480E06AD444
:100320002196C831D105A1F78091693F882309F44E
:10033000F6C08091693F82508093693FF0C0E5E547
:10034000FFE3818190E09C01220F331F820F931FF6
:10035000880F991F880F991F880F991F2CE630E08E
:10036000B901F0D3462FE62E868190E0BC01660FDE
:10037000771F860F971F880F991F880F991F880F67
:10038000991FB901DFD3C62FC62E838590E0BC012B
:10039000660F771F860F971F880F991F880F991F69
:1003A000880F991FB901CED3A62E8091093F8031C5
:1003B00078F4442319F0EE24EA94E40ECC2019F0EA
:1003C000CC24CA94CC0EAA2019F0AA24AA94A60E72
:1003D0008091093F803230F4E110EA94C110CA9450
:1003E000A110AA948091093F813218F0E394C3943C
:1003F000A3948091093F813318F0E394C394A394AC
:100400000AE01FE3C0E0D0E0F12CD12CB12C219602
:10041000CE15DF0531F0CC15DD0519F0CA15DB0569
:1004200061F487EEE7D3F8018281E4D3F80181819A
:10043000E1D3F8018081DED314C081EEDBD3F80173
:100440008281869586958695D5D3F801818186959A
:1004500086958695CFD3F801808186958695869579
:10046000C9D30D5F1F4FC831D10589F658C081E04F
:100470009091593F911101C080E090915E3F9111A0
:100480008F5F9091633F91118F5F813041F41092A3
:10049000523F8FE78093533F1092543F13C08230F6
:1004A00041F41092523F1092533F8FE78093543F94
:1004B00009C0833039F48FE78093523F1092533F45
:1004C0001092543FC8E1D0E00F2EF4E5AF2EFFE3C9
:1004D000BF2EF02D0F2EF3E5CF2EFFE3DF2EF02DF4
:1004E0000F2EF2E5EF2EFFE3FF2EF02D87EE82D3E5
:1004F000F5011081812F7ED3F6010081802F7AD300
:10050000F7019080892D76D3219781F79694909268
:10051000523F06950093533F16951093543F7ED358
:10052000DF91CF911F910F91FF90EF90DF90CF90CF
:08053000BF90AF909F90089569
:100538001F920F920FB60F9211242F933F938F9310
:100548009F933091003F8091063F2091033F90E0B8
:10055800830F911D820F911D21E02093460A8F3F42
:10056800910549F040F0969587958F3F910519F0D0
:1005780010F096958795809381068091080482FDF6
:100588000AC08091643F9091653F01968093643FD3
:100598009093653F23C08091643F9091653F813E71
:1005A8009E4230F08091683F80958093683F12C0EA
:1005B8008091643F9091653F893B9B4058F08091C2
:1005C800683F882339F01092693F80916A3F8F5FB6
:1005D80080936A3F1092643F1092653F8091663F16
:1005E8009091673F01968093663F9093673F9F91F4
:1005F8008F913F912F910F900FBE0F901F901895DC
:100608001F920F920FB60F9211242F933F934F937F
:100618005F936F937F938F939F93AF93BF93EF9362
:10062800FF9360910008962F907F903921F481E024
:1006380080936B3F3BC0903821F482E080936B3FFE
:1006480035C0903E21F484E080936B3F2FC08091A9
:100658006B3F813031F460936C3F83E080936B3F54
:1006680025C080916B3F823029F4862F13D21092D7
:100678006B3F1CC080916B3F833031F480916C3F9D
:1006880040D110926B3F12C080916B3F843021F4AF
:1006980085E080936B3F0AC080916B3F853031F4D1
:1006A80066956093093F10926B3F51D1FF91EF918E
:1006B800BF91AF919F918F917F916F915F914F9172
:0E06C8003F912F910F900FBE0F901F9018952D
:1006D600CF93DF9390E0FC01EE0FFF1FEE0FFF1F9D
:1006E600E80FF91FEB5AF04C2481222309F448C085
:1006F6002091093F2032E8F4EF01818181504CD1ED
:100706006091093F2A813B81821B930BAC01529574
:1007160042954F7045275F70452720E230E0261B43
:100726003109429FC001439F900D529F900D1124A5
:1007360029C0EC01CC0FDD1FCC0FDD1F8C0F9D1FD8
:10074600EC01CB5AD04C89818F5F26D12091093F8D
:100756004A815B81481B590B529542954F7045273C
:100766005F70452730E020523109429FC001439F08
:10077600900D529F900D112491958195910902C07B
:0A07860080E090E0DF91CF9108952C
:100790001F920F920FB60F9211242F933F934F93F6
:1007A0005F938F939F93AF93BF93EF93FF93A0E0DB
:1007B000BAE080E11B968C931B972091073F309104
:1007C000083F98964D915C919997E5E5FFE382810A
:1007D0009381840F951F820F931F98968D939C93FE
:1007E0009997808180958083948189238093003FAD
:1007F000FF91EF91BF91AF919F918F915F914F9139
:0E0800003F912F910F900FBE0F901F901895F3
:10080E001F920F920FB60F9211242F933F934F9377
:10081E005F938F939F93AF93BF93EF93FF93A0E05C
:10082E00BAE080E21B968C931B972091013F30918A
:10083E00023F9A964D915C919B97E5E5FFE3878188
:10084E009085840F951F820F931F9A968D939C937C
:10085E009B97858180958583918589238093063F1B
:10086E00FF91EF91BF91AF919F918F915F914F91BA
:0E087E003F912F910F900FBE0F901F90189575
:10088C001F920F920FB60F9211242F933F934F93F9
:10089C005F938F939F93AF93BF93EF93FF93A0E0DE
:1008AC00BAE080E41B968C931B972091043F309107
:1008BC00053F9C964D915C919D97E5E5FFE3848502
:1008CC009585840F951F820F931F9C968D939C93F7
:1008DC009D97828580958287968589238093033F97
:1008EC00FF91EF91BF91AF919F918F915F914F913C
:0E08FC003F912F910F900FBE0F901F901895F7
:10090A00FF920F931F93CF93DF93182F062F611136
:10091A0002C0BFD015C082D0F82EC82FD0E0CE01B9
:10092A00880F991F880F991FC80FD91FCB5AD04C0F
:10093A000C831983812F2ED08A839B838F2D4DD0D0
:0C094A00DF91CF911F910F91FF90089555
:100956008091093F803269F41092073F1092083F58
:100966001092013F1092023F1092043F1092053FF1
:10097600089580E0ADDE8093073F9093083F81E0C5
:10098600A7DE8093013F9093023F82E0A1DE809331
:08099600043F9093053F089512
:10099E008C36F1F021E0280F8CE690E0821B910955
:1009AE006CE070E0C8D0ECE6E21B862F880F860F55
:1009BE00880F880FE81BF0E0EE0FFF1FE853FF478C
:1009CE008081918102C0880F991F6A95E2F7089580
:0609DE0085E990E0089598
:1009E400813069F018F0823099F008958091573F72
:1009F4009091583F8093280A9093290A08958091F2
:100A04005C3F90915D3F80932A0A90932B0A08954E
:100A14008091613F9091623F80932C0A90932D0ABC
:020A2400089533
:100A26009091563F9923B1F08917B1F090915B3FB1
:100A3600992341F0891761F09091603F911104C0AC
:100A460082E0089581E00895981308C082E0089531
:100A560081E0089580E0089580E008958FEF08957D
:100A6600813059F018F0823079F008951092280AF2
:100A76001092290A1092003F089510922A0A1092A5
:100A86002B0A1092063F089510922C0A10922D0AF6
:060A96001092033F0895D9
:100A9C000F931F93CF93DF93082FC5E5DFE310E08F
:100AAC008981801304C0812FD8DF19821C821F5FBB
:100ABC0025961330A9F7DF91CF911F910F910895CF
:100ACC00A2D071D07CD0CFEFC09324085AD047D09D
:100ADC0093D0A3D0C093683F8091663F9091673FBD
:0A0AEC00843C9940C8F3F6DAF7CF16
:100AF600AA1BBB1B51E107C0AA1FBB1FA617B7073E
:100B060010F0A61BB70B881F991F5A95A9F7809559
:080B16009095BC01CD0108958A
:100B1E00CF93DF935FD0C8E1D0E080EE64D080E069
:100B2E0062D080E060D080E05ED02197B1F76FD0C8
:060B3E00DF91CF91089544
:100B440097FB072E16F4009406D077FD08D0D1DF6A
:100B540007FC05D03EF4909581959F4F08957095BC
:060B640061957F4F08952A
:100B6A00E0E0FAE080E7828789E08083E0E4FAE067
:100B7A00118281E0858388EC90E08487958783E001
:040B8A0080830895C7
:100B8E00E0E0F4E080818F778083E0E0F8E08BEEA8
:100B9E0099E08087918785818068858386818068CA
:040BAE00868308959D
:100BB20080E480930104E0EAF0E080818360808336
:080BC20081E480938006089590
:100BCA00E0E0F4E080818A608083E0E2F8E084E09B
:080BDA00818381E2808308950C
:100BE20080E007D080E005D080E003D080E001D033
:020BF200089564
:100BF400E0E2F8E093819923ECF7809324080895C8
:0E0C0400E0E0F4E084E0828388E0828B0895D3
:0A0C120088ED84BF10926100089580
:0A0C1C008FEFEADF80E0E8DF0895C3
:080C260081E08FBF789408956E
:020C2E00E8C913
:100C30007000006010005020004030003040002064
:100C40005000106000007000007000006010005044
:100C50002000403000304000205000106000007044
:100C60000000701000602000503000404000305004
:0B0C7000002060001070000000000079
:00000001FF
